{
  "_format": "hh-sol-artifact-1",
  "contractName": "chai",
  "sourceName": "contracts/chai.sol",
  "abi": [
    {
      "inputs": [],
      "stateMutability": "nonpayable",
      "type": "constructor"
    },
    {
      "inputs": [
        {
          "internalType": "string",
          "name": "name",
          "type": "string"
        },
        {
          "internalType": "string",
          "name": "message",
          "type": "string"
        }
      ],
      "name": "buychai",
      "outputs": [],
      "stateMutability": "payable",
      "type": "function"
    },
    {
      "inputs": [],
      "name": "getMemos",
      "outputs": [
        {
          "components": [
            {
              "internalType": "string",
              "name": "name",
              "type": "string"
            },
            {
              "internalType": "string",
              "name": "message",
              "type": "string"
            },
            {
              "internalType": "uint256",
              "name": "timestamp",
              "type": "uint256"
            },
            {
              "internalType": "address",
              "name": "from",
              "type": "address"
            }
          ],
          "internalType": "struct chai.Memo[]",
          "name": "",
          "type": "tuple[]"
        }
      ],
      "stateMutability": "view",
      "type": "function"
    }
  ],
  "bytecode": "0x608060405234801561001057600080fd5b5033600160006101000a81548173ffffffffffffffffffffffffffffffffffffffff021916908373ffffffffffffffffffffffffffffffffffffffff160217905550610b5b806100616000396000f3fe6080604052600436106100295760003560e01c8063865c51721461002e57806397aeeef714610059575b600080fd5b34801561003a57600080fd5b50610043610075565b6040516100509190610689565b60405180910390f35b610073600480360381019061006e919061071a565b610258565b005b60606000805480602002602001604051908101604052809291908181526020016000905b8282101561024f57838290600052602060002090600402016040518060800160405290816000820180546100cc906107ca565b80601f01602080910402602001604051908101604052809291908181526020018280546100f8906107ca565b80156101455780601f1061011a57610100808354040283529160200191610145565b820191906000526020600020905b81548152906001019060200180831161012857829003601f168201915b5050505050815260200160018201805461015e906107ca565b80601f016020809104026020016040519081016040528092919081815260200182805461018a906107ca565b80156101d75780601f106101ac576101008083540402835291602001916101d7565b820191906000526020600020905b8154815290600101906020018083116101ba57829003601f168201915b50505050508152602001600282015481526020016003820160009054906101000a900473ffffffffffffffffffffffffffffffffffffffff1673ffffffffffffffffffffffffffffffffffffffff1673ffffffffffffffffffffffffffffffffffffffff168152505081526020019060010190610099565b50505050905090565b6000341161029b576040517f08c379a000000000000000000000000000000000000000000000000000000000815260040161029290610858565b60405180910390fd5b600160009054906101000a900473ffffffffffffffffffffffffffffffffffffffff1673ffffffffffffffffffffffffffffffffffffffff166108fc349081150290604051600060405180830381858888f19350505050158015610303573d6000803e3d6000fd5b506000604051806080016040528086868080601f016020809104026020016040519081016040528093929190818152602001838380828437600081840152601f19601f82011690508083019250505050505050815260200184848080601f016020809104026020016040519081016040528093929190818152602001838380828437600081840152601f19601f8201169050808301925050505050505081526020014281526020013373ffffffffffffffffffffffffffffffffffffffff16815250908060018154018082558091505060019003906000526020600020906004020160009091909190915060008201518160000190816104039190610a53565b5060208201518160010190816104199190610a53565b506040820151816002015560608201518160030160006101000a81548173ffffffffffffffffffffffffffffffffffffffff021916908373ffffffffffffffffffffffffffffffffffffffff160217905550505050505050565b600081519050919050565b600082825260208201905092915050565b6000819050602082019050919050565b600081519050919050565b600082825260208201905092915050565b60005b838110156104d95780820151818401526020810190506104be565b60008484015250505050565b6000601f19601f8301169050919050565b60006105018261049f565b61050b81856104aa565b935061051b8185602086016104bb565b610524816104e5565b840191505092915050565b6000819050919050565b6105428161052f565b82525050565b600073ffffffffffffffffffffffffffffffffffffffff82169050919050565b600061057382610548565b9050919050565b61058381610568565b82525050565b600060808301600083015184820360008601526105a682826104f6565b915050602083015184820360208601526105c082826104f6565b91505060408301516105d56040860182610539565b5060608301516105e8606086018261057a565b508091505092915050565b60006105ff8383610589565b905092915050565b6000602082019050919050565b600061061f82610473565b610629818561047e565b93508360208202850161063b8561048f565b8060005b85811015610677578484038952815161065885826105f3565b945061066383610607565b925060208a0199505060018101905061063f565b50829750879550505050505092915050565b600060208201905081810360008301526106a38184610614565b905092915050565b600080fd5b600080fd5b600080fd5b600080fd5b600080fd5b60008083601f8401126106da576106d96106b5565b5b8235905067ffffffffffffffff8111156106f7576106f66106ba565b5b602083019150836001820283011115610713576107126106bf565b5b9250929050565b60008060008060408587031215610734576107336106ab565b5b600085013567ffffffffffffffff811115610752576107516106b0565b5b61075e878288016106c4565b9450945050602085013567ffffffffffffffff811115610781576107806106b0565b5b61078d878288016106c4565b925092505092959194509250565b7f4e487b7100000000000000000000000000000000000000000000000000000000600052602260045260246000fd5b600060028204905060018216806107e257607f821691505b6020821081036107f5576107f461079b565b5b50919050565b600082825260208201905092915050565b7f706c6561736520706179206d6f7265207468616e203020657468657200000000600082015250565b6000610842601c836107fb565b915061084d8261080c565b602082019050919050565b6000602082019050818103600083015261087181610835565b9050919050565b7f4e487b7100000000000000000000000000000000000000000000000000000000600052604160045260246000fd5b60008190508160005260206000209050919050565b60006020601f8301049050919050565b600082821b905092915050565b6000600883026109097fffffffffffffffffffffffffffffffffffffffffffffffffffffffffffffffff826108cc565b61091386836108cc565b95508019841693508086168417925050509392505050565b6000819050919050565b600061095061094b6109468461052f565b61092b565b61052f565b9050919050565b6000819050919050565b61096a83610935565b61097e61097682610957565b8484546108d9565b825550505050565b600090565b610993610986565b61099e818484610961565b505050565b5b818110156109c2576109b760008261098b565b6001810190506109a4565b5050565b601f821115610a07576109d8816108a7565b6109e1846108bc565b810160208510156109f0578190505b610a046109fc856108bc565b8301826109a3565b50505b505050565b600082821c905092915050565b6000610a2a60001984600802610a0c565b1980831691505092915050565b6000610a438383610a19565b9150826002028217905092915050565b610a5c8261049f565b67ffffffffffffffff811115610a7557610a74610878565b5b610a7f82546107ca565b610a8a8282856109c6565b600060209050601f831160018114610abd5760008415610aab578287015190505b610ab58582610a37565b865550610b1d565b601f198416610acb866108a7565b60005b82811015610af357848901518255600182019150602085019450602081019050610ace565b86831015610b105784890151610b0c601f891682610a19565b8355505b6001600288020188555050505b50505050505056fea2646970667358221220b30ffa490dd8dc07369b59e922dab3d4599c51301c0bc4b279642327f25078bc64736f6c63430008110033",
  "linkReferences": {},
  "deployedLinkReferences": {}
}